:1000000067C008C007C007C005C004C003C002C065
:1000100001C000C018951F931FB71F93B39419E038
:10002000B11611F410E0B12E10E017BBF0E0EBE1D7
:10003000EB0DF81D099408C00EC014C01AC020C0F2
:1000400026C02CC032C038C0C0FF3EC013E017BB72
:1000500012E018BB39C0B7FF37C019E017BB18E072
:1000600018BB32C0B6FF30C011E117BB10E118BB9E
:100070002BC0B5FF29C013E017BB11E018BB24C08B
:10008000B4FF22C01AE017BB18E018BB1DC0B3FFB5
:100090001BC012E117BB10E118BB16C0B2FF14C0A1
:1000A00019E017BB11E018BB0FC0B1FF0DC01AE07B
:1000B00017BB12E018BB08C061E0B0FF05C018E133
:1000C00017BB10E118BB00C01F911FBF1F911895EF
:1000D00010E017BB13B7187F116013BF19B7126078
:1000E00019BF88246627BB27CC27BB24EE24FF2416
:1000F0005527772722271127C1E0BAE7FC2EEB2EE0
:100100009B2FAC2F492E5A2E86E411E0412E1AE780
:10011000512EA1E09FEACC246627332777270027BA
:1001200078946623F1F36627F894CF2DBE2D78944A
:10013000262D203009F038C08A95882309F0F1CFA8
:1001400086E4242C352C33241BED2122220C331C75
:10015000503049F033241BED2122220C331C513046
:1001600011F022243324992EAA2E16EB503029F0B8
:10017000513031F0523039F009C09122A694979451
:100180009122A69497949122A694979411E0A1228B
:10019000E22CE928F32CFA285395543021F4552702
:1001A000002711E0612EBDCF0395023809F0B9CFC9
:1001B00010E0612E00E07395773009F47727F8940A
:1001C000F0E0E5EEE70FF81D099407C008C009C08C
:1001D0000AC00BC00CC00DC0A4CF39E10CC032E185
:1001E0000AC03DE108C033E006C031E004C032E09F
:1001F00002C036E000C07894492E5A2EF894F1E0FF
:10020000E4E0E30FF81D099428C02AC02CC02EC0DA
:1002100030C032C034C036C038C03AC03CC03EC026
:1002200040C042C044C046C048C04AC04CC04EC096
:1002300050C052C054C056C058C05AC05CC05EC006
:1002400060C062C064C066C068C06AC06CC06EC076
:1002500070C072C074C076C000C0A0E090E075C0ED
:10026000A1E09FEE72C0A1E097E96FC0A1E093E921
:100270006CC0A1E09BEC69C0A1E09AE366C0A0E07D
:1002800096EF63C0A1E096E360C0A1E09AEC5DC088
:10029000A1E09BEB5AC0A0E099ED57C0A0E09FEE13
:1002A00054C0A1E09FE351C0A1E097EE4EC0A1E091
:1002B0009EEA4BC0A1E097EF48C0A1E094EF45C093
:1002C000A1E09BEF42C0A1E09DE73FC0A1E097ED18
:1002D0003CC0A1E094ED39C0A1E095E736C0A1E0B3
:1002E00097E233C0A1E09DEB30C0A1E09DEA2DC0B4
:1002F000A1E09FEA2AC0A1E09CEF27C0A1E099EE0F
:1003000024C0A1E09CEA21C0A0E096ED1EC0A1E0BF
:1003100092ED1BC0A1E09FE618C0A1E09AE615C0CF
:10032000A1E09FE712C0A1E095E50FC0A1E092E532
:100330000CC0A1E093E909C0A1E09AE706C0A1E0E2
:0E03400090E503C0A0E09AE200C07894EACEF7
:00000001FF
